{
  "contractName": "Staking",
  "abi": [
    {
      "constant": true,
      "inputs": [],
      "name": "blockReward",
      "outputs": [
        {
          "name": "",
          "type": "uint256"
        }
      ],
      "payable": false,
      "stateMutability": "view",
      "type": "function"
    },
    {
      "constant": true,
      "inputs": [],
      "name": "totalStakedAmount",
      "outputs": [
        {
          "name": "",
          "type": "uint256"
        }
      ],
      "payable": false,
      "stateMutability": "view",
      "type": "function"
    },
    {
      "constant": true,
      "inputs": [],
      "name": "lastBlock",
      "outputs": [
        {
          "name": "",
          "type": "uint256"
        }
      ],
      "payable": false,
      "stateMutability": "view",
      "type": "function"
    },
    {
      "constant": true,
      "inputs": [
        {
          "name": "",
          "type": "address"
        }
      ],
      "name": "stakers",
      "outputs": [
        {
          "name": "stake",
          "type": "uint256"
        },
        {
          "name": "reward",
          "type": "uint256"
        },
        {
          "name": "lastWeightedBlockReward",
          "type": "uint256"
        }
      ],
      "payable": false,
      "stateMutability": "view",
      "type": "function"
    },
    {
      "constant": true,
      "inputs": [],
      "name": "tokenAddress",
      "outputs": [
        {
          "name": "",
          "type": "address"
        }
      ],
      "payable": false,
      "stateMutability": "view",
      "type": "function"
    },
    {
      "constant": true,
      "inputs": [],
      "name": "weightedBlockReward",
      "outputs": [
        {
          "name": "",
          "type": "uint256"
        }
      ],
      "payable": false,
      "stateMutability": "view",
      "type": "function"
    },
    {
      "inputs": [
        {
          "name": "_token",
          "type": "address"
        },
        {
          "name": "_blockReward",
          "type": "uint256"
        }
      ],
      "payable": false,
      "stateMutability": "nonpayable",
      "type": "constructor"
    },
    {
      "constant": false,
      "inputs": [
        {
          "name": "_amount",
          "type": "uint256"
        }
      ],
      "name": "stake",
      "outputs": [],
      "payable": true,
      "stateMutability": "payable",
      "type": "function"
    },
    {
      "constant": false,
      "inputs": [
        {
          "name": "_amount",
          "type": "uint256"
        }
      ],
      "name": "withdraw",
      "outputs": [],
      "payable": false,
      "stateMutability": "nonpayable",
      "type": "function"
    },
    {
      "constant": false,
      "inputs": [
        {
          "name": "_reward",
          "type": "uint256"
        }
      ],
      "name": "claim",
      "outputs": [],
      "payable": false,
      "stateMutability": "nonpayable",
      "type": "function"
    },
    {
      "constant": true,
      "inputs": [
        {
          "name": "_addr",
          "type": "address"
        }
      ],
      "name": "getReward",
      "outputs": [
        {
          "name": "_reward",
          "type": "uint256"
        }
      ],
      "payable": false,
      "stateMutability": "view",
      "type": "function"
    },
    {
      "constant": true,
      "inputs": [
        {
          "name": "_addr",
          "type": "address"
        }
      ],
      "name": "getStake",
      "outputs": [
        {
          "name": "",
          "type": "uint256"
        }
      ],
      "payable": false,
      "stateMutability": "view",
      "type": "function"
    }
  ],
  "bytecode": "0x608060405234801561001057600080fd5b50604051604080610c788339810180604052604081101561003057600080fd5b5080516020909101516001600160a01b0382166100ae57604080517f08c379a000000000000000000000000000000000000000000000000000000000815260206004820152601560248201527f496e76616c696420746f6b656e20616464726573730000000000000000000000604482015290519081900360640190fd5b600580546001600160a01b0319166001600160a01b038481169190911791829055604080517f313ce5670000000000000000000000000000000000000000000000000000000081529051610168938593169163313ce567916004808301926020929190829003018186803b15801561012557600080fd5b505afa158015610139573d6000803e3d6000fd5b505050506040513d602081101561014f57600080fd5b505160ff16600a0a90610173602090811b61080617901c565b600455506101ef9050565b600082610182575060006101e9565b8282028284828161018f57fe5b04146101e6576040517f08c379a0000000000000000000000000000000000000000000000000000000008152600401808060200182810382526021815260200180610c576021913960400191505060405180910390fd5b90505b92915050565b610a59806101fe6000396000f3fe6080604052600436106100bc5760003560e01c8063806b984f11610074578063a694fc3a1161004e578063a694fc3a1461021d578063c00007b01461023a578063c414af591461026d576100bc565b8063806b984f146101865780639168ae721461019b5780639d76ea58146101ec576100bc565b8063379607f5116100a5578063379607f514610114578063567e98f91461013e5780637a76646014610153576100bc565b80630ac168a1146100c15780632e1a7d4d146100e8575b600080fd5b3480156100cd57600080fd5b506100d6610282565b60408051918252519081900360200190f35b3480156100f457600080fd5b506101126004803603602081101561010b57600080fd5b5035610288565b005b34801561012057600080fd5b506101126004803603602081101561013757600080fd5b5035610383565b34801561014a57600080fd5b506100d66103fb565b34801561015f57600080fd5b506100d66004803603602081101561017657600080fd5b50356001600160a01b0316610401565b34801561019257600080fd5b506100d661041c565b3480156101a757600080fd5b506101ce600480360360208110156101be57600080fd5b50356001600160a01b0316610422565b60408051938452602084019290925282820152519081900360600190f35b3480156101f857600080fd5b50610201610443565b604080516001600160a01b039092168252519081900360200190f35b6101126004803603602081101561023357600080fd5b5035610452565b34801561024657600080fd5b506100d66004803603602081101561025d57600080fd5b50356001600160a01b031661054b565b34801561027957600080fd5b506100d661063c565b60045481565b6000806000610295610642565b6001600160a01b03166001600160a01b0316815260200190815260200160002090506102c46000836000610646565b6102cd816106dd565b80546102df908363ffffffff61074716565b81556005546001600160a01b031663a9059cbb6102fa610642565b846040518363ffffffff1660e01b815260040180836001600160a01b03166001600160a01b0316815260200182815260200192505050602060405180830381600087803b15801561034a57600080fd5b505af115801561035e573d6000803e3d6000fd5b505050506040513d602081101561037457600080fd5b505161037f57600080fd5b5050565b6000806000610390610642565b6001600160a01b03166001600160a01b0316815260200190815260200160002090506103bf6000806001610646565b6103c8816106dd565b60018101546103dd908363ffffffff61074716565b60018201556005546001600160a01b03166340c10f196102fa610642565b60015481565b6001600160a01b031660009081526020819052604090205490565b60035481565b60006020819052908152604090208054600182015460029092015490919083565b6005546001600160a01b031681565b6005546001600160a01b03166323b872dd61046b610642565b6040805163ffffffff841660e01b81526001600160a01b039092166004830152306024830152604482018590525160648083019260209291908290030181600087803b1580156104ba57600080fd5b505af11580156104ce573d6000803e3d6000fd5b505050506040513d60208110156104e457600080fd5b50516104ef57600080fd5b60008060006104fc610642565b6001600160a01b03166001600160a01b03168152602001908152602001600020905061052b8260006001610646565b610534816106dd565b8054610546908363ffffffff61079216565b905550565b60006105556109eb565b506001600160a01b038216600090815260208181526040808320815160608101835281548152600180830154948201949094526002909101549181019190915290549091901561062f5760006105ec6105dd6001546105d16004546105c56003544361074790919063ffffffff16565b9063ffffffff61080616565b9063ffffffff61087916565b6002549063ffffffff61079216565b9050600061060784604001518361074790919063ffffffff16565b845190915061062a90670de0b6b3a7640000906105d1908463ffffffff61080616565b925050505b6020909101510192915050565b60025481565b3390565b6001541561068a57600061066b6004546105c56003544361074790919063ffffffff16565b90506106856105dd6001548361087990919063ffffffff16565b600255505b4360035580801561069b5750600083115b156106bb576001546106b3908463ffffffff61079216565b6001556106d8565b81156106d8576001546106d4908363ffffffff61074716565b6001555b505050565b60006106f8826002015460025461074790919063ffffffff16565b9050600061071f670de0b6b3a76400006105d184866000015461080690919063ffffffff16565b6001840154909150610737908263ffffffff61079216565b6001840155505060028054910155565b600061078983836040518060400160405280601e81526020017f536166654d6174683a207375627472616374696f6e206f766572666c6f7700008152506108bb565b90505b92915050565b60008282018381101561078957604080517f08c379a000000000000000000000000000000000000000000000000000000000815260206004820152601b60248201527f536166654d6174683a206164646974696f6e206f766572666c6f770000000000604482015290519081900360640190fd5b6000826108155750600061078c565b8282028284828161082257fe5b0414610789576040517f08c379a0000000000000000000000000000000000000000000000000000000008152600401808060200182810382526021815260200180610a0d6021913960400191505060405180910390fd5b600061078983836040518060400160405280601a81526020017f536166654d6174683a206469766973696f6e206279207a65726f00000000000081525061096c565b60008184841115610964576040517f08c379a00000000000000000000000000000000000000000000000000000000081526004018080602001828103825283818151815260200191508051906020019080838360005b83811015610929578181015183820152602001610911565b50505050905090810190601f1680156109565780820380516001836020036101000a031916815260200191505b509250505060405180910390fd5b505050900390565b600081836109d5576040517f08c379a0000000000000000000000000000000000000000000000000000000008152602060048201818152835160248401528351909283926044909101919085019080838360008315610929578181015183820152602001610911565b5060008385816109e157fe5b0495945050505050565b6040518060600160405280600081526020016000815260200160008152509056fe536166654d6174683a206d756c7469706c69636174696f6e206f766572666c6f77a165627a7a7230582092699865fe4e72f941331de1112804cd4294a17e389c340ca8b8faa3b0b14ccd0029536166654d6174683a206d756c7469706c69636174696f6e206f766572666c6f77",
  "source": "pragma solidity ^0.5.8;\n\nimport \"@openzeppelin/contracts/math/SafeMath.sol\";\nimport \"@openzeppelin/contracts/GSN/Context.sol\";\nimport \"./mocks/TokenMock.sol\";\n\ncontract Staking is Context {\n\n    using SafeMath for uint;\n\n    struct Staker {\n        uint stake; \n        uint reward;        \n        uint lastWeightedBlockReward;\n    }\n    \n    mapping(address => Staker) public stakers;\n    \n    uint public totalStakedAmount;\n    uint public weightedBlockReward;\n    uint public lastBlock;\n    uint public blockReward;\n    TokenMock public tokenAddress;\n\n    constructor(address _token, uint _blockReward) public {\n        require(_token != address(0), \"Invalid token address\");\n        tokenAddress = TokenMock(_token);\n        blockReward = uint(10**uint(tokenAddress.decimals())).mul(_blockReward);\n    }\n\n    function stake_update(uint _deposit,uint _withdraw, bool _sign) internal {\n        if (totalStakedAmount!=0) {\n            uint m_intervalReward = block.number.sub(lastBlock).mul(blockReward);\n            weightedBlockReward = weightedBlockReward.add((m_intervalReward).div(totalStakedAmount));\n        }\n\n        lastBlock = block.number;\n        \n        if(_sign && _deposit > 0) totalStakedAmount = totalStakedAmount.add(_deposit);\n        else if(_withdraw > 0) totalStakedAmount = totalStakedAmount.sub(_withdraw);\n    }\n\n    function reward_update(Staker storage staker ) internal {\n        uint stakerIntervalWeightedBlockReward = weightedBlockReward.sub(staker.lastWeightedBlockReward);\n        uint _reward = staker.stake.mul(stakerIntervalWeightedBlockReward).div(1 ether);\n        staker.reward = staker.reward.add(_reward);\n        staker.lastWeightedBlockReward = weightedBlockReward;\n    }\n\n    function stake(uint _amount) public payable {\n        require(tokenAddress.transferFrom(_msgSender(),address(this),_amount));\n        Staker storage staker = stakers[_msgSender()];\n        stake_update(_amount,0,true);\n        reward_update(staker); \n        staker.stake = staker.stake.add(_amount); \n    }\n    \n    function withdraw(uint _amount) public {\n        Staker storage staker = stakers[_msgSender()];\n        stake_update(0,_amount,false);\n        reward_update(staker);\n        staker.stake  = staker.stake.sub(_amount);\n        require(tokenAddress.transfer(_msgSender(),_amount));\n    }\n\n    function claim(uint _reward) public {\n        Staker storage staker = stakers[_msgSender()];\n        stake_update(0,0,true);\n        reward_update(staker);\n        staker.reward  = staker.reward.sub(_reward);\n        require(tokenAddress.mint(_msgSender(),_reward));\n    }\n\n    function getReward(address _addr) public view returns(uint _reward) {\n        Staker memory staker = stakers[_addr];\n        uint reward;\n        if (totalStakedAmount!=0) {\n\n            uint m_weightedBlockReward = weightedBlockReward.add((block.number.sub(lastBlock).mul(blockReward)).div(totalStakedAmount));\n            uint m_stakerIntervalWeightedBlockReward = m_weightedBlockReward.sub(staker.lastWeightedBlockReward);\n            reward = staker.stake.mul(m_stakerIntervalWeightedBlockReward).div(1 ether);\n        }\n        _reward = staker.reward + reward;\n    }\n\n    function getStake(address _addr) public view returns(uint) {\n        return stakers[_addr].stake;\n    }\n}\n",
  "sourcePath": "/home/faycal/Desktop/projects/staking-library/contracts/Staking.sol",
  "compiler": {
    "name": "solc",
    "version": "0.5.8+commit.23d335f2.Emscripten.clang"
  },
  "schemaVersion": "3.0.22",
  "updatedAt": "2020-03-12T11:28:15.354Z",
  "devdoc": {
    "methods": {}
  },
  "userdoc": {
    "methods": {}
  }
}